:100000000C942A000C9447000C9447000C94470071
:100010000C9416020C9447000C9447000C94470073
:100020000C9447000C9447000C9447000C94470034
:100030000C9447000C9447000C9447000C94470024
:100040000C9447000C9447000C9447000C94470014
:100050000C94470011241FBECFE5D4E0DEBFCDBF16
:1000600010E0A0E6B0E0E2E3FBE002C005900D92F4
:10007000A437B107D9F711E0A4E7B0E001C01D92A1
:10008000A73CB107E1F70E9449000C9497050C9436
:100090000000F8940E9468030E942F0185E194E01B
:1000A0006FE771E040E00E949B008FE693E064EC14
:1000B00071E041E00E949B0088E893E06EE371E00C
:1000C00042E00E949B0078940E940F01FFCF21E044
:1000D00030E002C0220F331F8A95E2F78091FE00C4
:1000E000822B8093FE00089521E030E002C0220FB1
:1000F000331F8A95E2F720958091FE00822380933A
:10010000FE0008958091FE00482F50E067E027E050
:1001100030E0CA01022E02C0959587950A94E2F755
:1001200080FD622F215030408FEF2F3F380789F735
:100130006093BC000895FB01808392931292129207
:10014000129222E0229323E0229324E0229325E0DE
:10015000229326E0229327E0229328E0229329E0AD
:1001600022932AE022932BE022932CE022932DE08D
:1001700022932EE022932FE0229320E1229321E18B
:10018000229322E1229323E1229324E1229325E189
:10019000229326E1229327E1229328E1229329E169
:1001A00022932AE122932BE122932CE122932DE149
:1001B00022932EE122932FE12293642F70E021E01D
:1001C00030E0042E02C0220F331F0A94E2F7509150
:1001D000FE00522B5093FE00DB0123E0AA0FBB1F51
:1001E0002A95E1F72CE730E01296A20FB31F8C930B
:1001F00011969C9393E0660F771F9A95E1F7D901CA
:10020000A60FB71F31971196FC93EE93260F371F59
:10021000F901448316961C921E92159708950E9428
:100220008200E091BC00E093BD00F0E033E0EE0F0F
:10023000FF1F3A95E1F7E458FF4F80819181819645
:100240009EBF8DBF0895FFCF85B7806485BF89B7F6
:10025000806489BF14BC85B5836085BD08950E9404
:10026000240183E291E06DEF70E047E00E949B0083
:100270000895F8942091BC00E091BD002E1709F478
:100280005FC01F920F920FB60F922F923F924F9224
:100290005F926F927F928F929F92AF92BF92CF9216
:1002A000DF92EF92FF920F931F932F933F934F9301
:1002B0005F936F937F938F939F93AF93BF93CF93EE
:1002C000DF93EF93FF938DB79EB7F0E053E0EE0F0F
:1002D000FF1F5A95E1F7E458FF4F918380832093E5
:1002E000BD00E22FF0E043E0EE0FFF1F4A95E1F77B
:1002F000E458FF4F808191819EBF8DBFFF91EF91A8
:10030000DF91CF91BF91AF919F918F917F916F912D
:100310005F914F913F912F911F910F91FF90EF901F
:10032000DF90CF90BF90AF909F908F907F906F9015
:100330005F904F903F902F900F900FBE0F901F90A7
:10034000789408950E9482000E9439010895E091F6
:10035000BD00F0E021E030E00E2E02C0220F331F7E
:100360000A94E2F720954091FE0042234093FE005C
:1003700063E0EE0FFF1F6A95E1F7E458FF4F9683A5
:1003800085830E94A2010895AC01EEE7F0E020E031
:10039000808191818417950721F02F5F389628304E
:1003A000B9F781E090E002C0880F991F2A95E2F723
:1003B0002091FE00282B2093FE000E94A2010895A8
:1003C00081E090E00090BD0002C0880F991F0A9460
:1003D000E2F780952091FE0028232093FE000E94E2
:1003E000A20108954091FE00E1E8F0E020E030E055
:1003F00061E070E080819181009769F001979183BD
:100400008083892B41F4CB01022E02C0880F991FF3
:100410000A94E2F7482B2F5F3F4F3896283031057A
:1004200049F74093FE000E94A20108951F920F9287
:100430000FB60F9211242F933F934F935F936F93B7
:100440007F938F939F93AF93BF93EF93FF93F89412
:1004500084E684BD0E94F2017894FF91EF91BF91F0
:10046000AF919F918F917F916F915F914F913F914C
:100470002F910F900FBE0F901F90189587B3876034
:1004800087BBC19A0895AC0127E030E0CA01022E73
:1004900002C0959587950A94E2F780FF02C0C09A42
:1004A00001C0C098C29A00000000C298215030409C
:1004B0008FEF2F3F380751F708950F931F938B014C
:1004C00097B3976097BBC19AC19821E030E002C012
:1004D000220F331F8A95E2F7C901809590950E94FB
:1004E0004302000F111F005A1F4FF80180819181B4
:1004F0000E944302C19A1F910F910895FFCFAF92BE
:10050000BF92CF92DF92EF92FF920F931F93CF9300
:10051000DF93162F072FB82EA92E262F372F482FFF
:10052000592FC901DA01BC01CD01CC24DD242AE018
:1005300030E040E050E00E945A05C901DA01BC01F8
:10054000CD010894C11CD11C61157105810591056F
:1005500071F7E12EF02E0B2D1A2DC0E0D0E097E0C0
:10056000A92EB12CB701C8012AE030E040E050E0EC
:100570000E945A059B01AC01C5018C1B9D0BB90162
:100580000E945D02B701C8012AE030E040E050E07F
:100590000E945A0579018A012196CC15DD0514F3D4
:1005A000DF91CF911F910F91FF90EF90DF90CF904F
:1005B000BF90AF900895EF92FF920F931F93CF9348
:1005C000DF931BC0CE01B7010E945D022196C830A7
:1005D000D105C1F70F5F1F4F0233110519F0C0E0BD
:1005E000D0E0F0CF81E090E00E940C030894E11C81
:1005F000F11C8AE0E816F10414F0EE24FF2400E078
:1006000010E0EDCF20E030E003C000002F5F3F4F4F
:1006100028173907D4F3089508958FEF87BB81BB5E
:1006200088BB80E090E00895AF92BF92CF92DF92B6
:10063000EF92FF920F931F93CF93DF936C018FEF95
:1006400087BB81BB88BBEE24FF2481E0A82EB12CA0
:1006500019C0C5010C2E02C0880F991F0A94E2F739
:10066000809588BBF801808182BB8CE291E00E947A
:100670000C0321960E5F1F4FC830D10551F7089427
:10068000E11CF11CEC14FD042CF400E610E0C0E0C9
:10069000D0E0DFCF8FEF88BBDF91CF911F910F911B
:1006A000FF90EF90DF90CF90BF90AF9008952FEF25
:1006B00027BB21BB28BB18BAFC01EE0FFF1FE05A75
:1006C000FF4F808182BB88EE93E00E940C03089567
:1006D00080E884BF84BF8FEF84BB87BB08950E94EE
:1006E000E00182E390E00E941E0580917A009091E3
:1006F0007B00019660E177E20E94330590937B00D6
:1007000080937A0084E190E00E94A70113BEE7CFB6
:1007100020917A0030917B00C90168EE73E00E945D
:100720003305462F6093C601C90164E670E00E945C
:100730003305CB016AE070E00E94330580933F01EE
:10074000C9016AE070E00E943305CB016AE070E005
:100750000E94330580938201C9016AE070E00E9423
:100760003305809380012091780030917900C90190
:1007700068EE73E00E9433056093C501C90164E629
:1007800070E00E943305CB016AE070E00E943305FF
:1007900080938401C9016AE070E00E943305CB01B7
:1007A0006AE070E00E94330580938101C9016AE02C
:1007B00070E00E9433058093830180E090E0642F15
:1007C00070E00E945D0260913F0181E090E070E086
:1007D0000E945D026091820182E090E070E00E94E0
:1007E0005D026091800183E090E070E00E945D0214
:1007F0006091C50184E090E070E00E945D0260912C
:10080000840185E090E070E00E945D0260918101CA
:1008100086E090E070E00E945D026091830187E0D5
:1008200090E070E00E945D0273CFAF92BF92CF92D2
:10083000DF92EF92FF920F931F93AA24AA944EEF98
:10084000B42E3CEFC32E28EFD22E90EFE92E80EE8F
:10085000F82E00EC10E8A5BA84E190E00E94A70110
:10086000809178009091790001969093790080931F
:100870007800B5BA84E190E00E94A70180917800E9
:100880009091790001969093790080937800C5BA91
:1008900084E190E00E94A701809178009091790016
:1008A00001969093790080937800D5BA84E190E026
:1008B0000E94A70180917800909179000196909311
:1008C000790080937800E5BA84E190E00E94A70166
:1008D00080917800909179000196909379008093AF
:1008E0007800F5BA84E190E00E94A7018091780039
:1008F000909179000196909379008093780005BBE0
:1009000084E190E00E94A7018091780090917900A5
:100910000196909379008093780015BB84E190E074
:100920000E94A701809178009091790001969093A0
:1009300079008093780015BA84E190E00E94A701C5
:10094000809178009091790001969093790080933E
:1009500078008FE693E00E94C40115BB84E190E02B
:100960000E94A70180917800909179000196909360
:1009700079008093780005BB84E190E00E94A70194
:1009800080917800909179000196909379008093FE
:100990007800F5BA84E190E00E94A7018091780088
:1009A0009091790001969093790080937800E5BA50
:1009B00084E190E00E94A7018091780090917900F5
:1009C00001969093790080937800D5BA84E190E005
:1009D0000E94A701809178009091790001969093F0
:1009E000790080937800C5BA84E190E00E94A70165
:1009F000809178009091790001969093790080938E
:100A00007800B5BA84E190E00E94A7018091780057
:100A10009091790001969093790080937800A5BA1F
:100A200084E190E00E94A701809178009091790084
:100A3000019690937900809378000DCFBB9AC3986C
:100A400012BE2FEF30E0AC01429FC001439F900DDA
:100A5000529F900D112464E670E00E9447056CBF20
:100A600089E683BF0895AA1BBB1B51E107C0AA1FDB
:100A7000BB1FA617B70710F0A61BB70B881F991F3F
:100A80005A95A9F780959095BC01CD01089597FBE3
:100A9000092E07260AD077FD04D0E5DF06D0002016
:100AA0001AF4709561957F4F0895F6F790958195AA
:100AB0009F4F089597FB092E05260ED057FD04D0B1
:100AC00014D00AD0001C38F45095409530952195EB
:100AD0003F4F4F4F5F4F0895F6F790958095709573
:100AE00061957F4F8F4F9F4F0895A1E21A2EAA1B49
:100AF000BB1BFD010DC0AA1FBB1FEE1FFF1FA217CE
:100B0000B307E407F50720F0A21BB30BE40BF50BCA
:100B1000661F771F881F991F1A9469F76095709553
:100B2000809590959B01AC01BD01CF010895F8948B
:020B3000FFCFF5
:100B32003F0006005B004F0066006D007D0007006D
:040B42007F006F00C1
:00000001FF
